{
  "contractName": "AzuroBet",
  "abi": [
    {
      "inputs": [],
      "name": "WXDAI",
      "outputs": [
        {
          "internalType": "address",
          "name": "",
          "type": "address"
        }
      ],
      "stateMutability": "view",
      "type": "function",
      "constant": true
    },
    {
      "inputs": [],
      "name": "core",
      "outputs": [
        {
          "internalType": "address",
          "name": "",
          "type": "address"
        }
      ],
      "stateMutability": "view",
      "type": "function",
      "constant": true
    },
    {
      "inputs": [],
      "name": "lp",
      "outputs": [
        {
          "internalType": "contract ILP",
          "name": "",
          "type": "address"
        }
      ],
      "stateMutability": "view",
      "type": "function",
      "constant": true
    },
    {
      "inputs": [
        {
          "internalType": "uint128",
          "name": "amount",
          "type": "uint128"
        },
        {
          "internalType": "uint64",
          "name": "expiresAt",
          "type": "uint64"
        },
        {
          "components": [
            {
              "internalType": "address",
              "name": "affiliate",
              "type": "address"
            },
            {
              "internalType": "bytes",
              "name": "data",
              "type": "bytes"
            }
          ],
          "internalType": "struct IBet.BetData",
          "name": "betData",
          "type": "tuple"
        }
      ],
      "name": "bet",
      "outputs": [],
      "stateMutability": "nonpayable",
      "type": "function"
    }
  ],
  "bytecode": "0x608060405273204e7371ade792c5c006fb52711c50a7efc843ed5f806101000a81548173ffffffffffffffffffffffffffffffffffffffff021916908373ffffffffffffffffffffffffffffffffffffffff16021790555073c95c831c7bdb0650b8cd5f2a542b263872d8ed0e60015f6101000a81548173ffffffffffffffffffffffffffffffffffffffff021916908373ffffffffffffffffffffffffffffffffffffffff16021790555073e91d153e0b41518a2ce8dd3d7944fa863463a97d60025f6101000a81548173ffffffffffffffffffffffffffffffffffffffff021916908373ffffffffffffffffffffffffffffffffffffffff16021790555034801561010a575f80fd5b50610c8f806101185f395ff3fe608060405234801561000f575f80fd5b506004361061004a575f3560e01c8063313c06a01461004e578063604a52fb1461006c578063a0b12a1d1461008a578063f2f4eb26146100a6575b5f80fd5b6100566100c4565b60405161006391906105ad565b60405180910390f35b6100746100e7565b60405161008191906105e6565b60405180910390f35b6100a4600480360381019061009f9190610869565b61010c565b005b6100ae61026d565b6040516100bb91906105e6565b60405180910390f35b5f8054906101000a900473ffffffffffffffffffffffffffffffffffffffff1681565b60025f9054906101000a900473ffffffffffffffffffffffffffffffffffffffff1681565b61014b60025f9054906101000a900473ffffffffffffffffffffffffffffffffffffffff163330866fffffffffffffffffffffffffffffffff16610292565b6101a860025f9054906101000a900473ffffffffffffffffffffffffffffffffffffffff165f8054906101000a900473ffffffffffffffffffffffffffffffffffffffff16856fffffffffffffffffffffffffffffffff166103e4565b5f8054906101000a900473ffffffffffffffffffffffffffffffffffffffff1673ffffffffffffffffffffffffffffffffffffffff16637e9488f660015f9054906101000a900473ffffffffffffffffffffffffffffffffffffffff168585856040518563ffffffff1660e01b815260040161022794939291906109b6565b6020604051808303815f875af1158015610243573d5f803e3d5ffd5b505050506040513d601f19601f820116820180604052508101906102679190610a33565b50505050565b60015f9054906101000a900473ffffffffffffffffffffffffffffffffffffffff1681565b5f808573ffffffffffffffffffffffffffffffffffffffff166323b872dd60e01b8686866040516024016102c893929190610a6d565b604051602081830303815290604052907bffffffffffffffffffffffffffffffffffffffffffffffffffffffff19166020820180517bffffffffffffffffffffffffffffffffffffffffffffffffffffffff83818316178352505050506040516103329190610adc565b5f604051808303815f865af19150503d805f811461036b576040519150601f19603f3d011682016040523d82523d5f602084013e610370565b606091505b509150915081801561039d57505f8151148061039c57508080602001905181019061039b9190610b27565b5b5b6103dc576040517f08c379a00000000000000000000000000000000000000000000000000000000081526004016103d390610bac565b60405180910390fd5b505050505050565b5f808473ffffffffffffffffffffffffffffffffffffffff1663095ea7b360e01b8585604051602401610418929190610bca565b604051602081830303815290604052907bffffffffffffffffffffffffffffffffffffffffffffffffffffffff19166020820180517bffffffffffffffffffffffffffffffffffffffffffffffffffffffff83818316178352505050506040516104829190610adc565b5f604051808303815f865af19150503d805f81146104bb576040519150601f19603f3d011682016040523d82523d5f602084013e6104c0565b606091505b50915091508180156104ed57505f815114806104ec5750808060200190518101906104eb9190610b27565b5b5b61052c576040517f08c379a000000000000000000000000000000000000000000000000000000000815260040161052390610c3b565b60405180910390fd5b5050505050565b5f73ffffffffffffffffffffffffffffffffffffffff82169050919050565b5f819050919050565b5f61057561057061056b84610533565b610552565b610533565b9050919050565b5f6105868261055b565b9050919050565b5f6105978261057c565b9050919050565b6105a78161058d565b82525050565b5f6020820190506105c05f83018461059e565b92915050565b5f6105d082610533565b9050919050565b6105e0816105c6565b82525050565b5f6020820190506105f95f8301846105d7565b92915050565b5f604051905090565b5f80fd5b5f80fd5b5f6fffffffffffffffffffffffffffffffff82169050919050565b61063481610610565b811461063e575f80fd5b50565b5f8135905061064f8161062b565b92915050565b5f67ffffffffffffffff82169050919050565b61067181610655565b811461067b575f80fd5b50565b5f8135905061068c81610668565b92915050565b5f80fd5b5f601f19601f8301169050919050565b7f4e487b71000000000000000000000000000000000000000000000000000000005f52604160045260245ffd5b6106dc82610696565b810181811067ffffffffffffffff821117156106fb576106fa6106a6565b5b80604052505050565b5f61070d6105ff565b905061071982826106d3565b919050565b5f80fd5b61072b816105c6565b8114610735575f80fd5b50565b5f8135905061074681610722565b92915050565b5f80fd5b5f80fd5b5f67ffffffffffffffff82111561076e5761076d6106a6565b5b61077782610696565b9050602081019050919050565b828183375f83830152505050565b5f6107a461079f84610754565b610704565b9050828152602081018484840111156107c0576107bf610750565b5b6107cb848285610784565b509392505050565b5f82601f8301126107e7576107e661074c565b5b81356107f7848260208601610792565b91505092915050565b5f6040828403121561081557610814610692565b5b61081f6040610704565b90505f61082e84828501610738565b5f83015250602082013567ffffffffffffffff8111156108515761085061071e565b5b61085d848285016107d3565b60208301525092915050565b5f805f606084860312156108805761087f610608565b5b5f61088d86828701610641565b935050602061089e8682870161067e565b925050604084013567ffffffffffffffff8111156108bf576108be61060c565b5b6108cb86828701610800565b9150509250925092565b6108de81610610565b82525050565b6108ed81610655565b82525050565b6108fc816105c6565b82525050565b5f81519050919050565b5f82825260208201905092915050565b5f5b8381101561093957808201518184015260208101905061091e565b5f8484015250505050565b5f61094e82610902565b610958818561090c565b935061096881856020860161091c565b61097181610696565b840191505092915050565b5f604083015f8301516109915f8601826108f3565b50602083015184820360208601526109a98282610944565b9150508091505092915050565b5f6080820190506109c95f8301876105d7565b6109d660208301866108d5565b6109e360408301856108e4565b81810360608301526109f5818461097c565b905095945050505050565b5f819050919050565b610a1281610a00565b8114610a1c575f80fd5b50565b5f81519050610a2d81610a09565b92915050565b5f60208284031215610a4857610a47610608565b5b5f610a5584828501610a1f565b91505092915050565b610a6781610a00565b82525050565b5f606082019050610a805f8301866105d7565b610a8d60208301856105d7565b610a9a6040830184610a5e565b949350505050565b5f81905092915050565b5f610ab682610902565b610ac08185610aa2565b9350610ad081856020860161091c565b80840191505092915050565b5f610ae78284610aac565b915081905092915050565b5f8115159050919050565b610b0681610af2565b8114610b10575f80fd5b50565b5f81519050610b2181610afd565b92915050565b5f60208284031215610b3c57610b3b610608565b5b5f610b4984828501610b13565b91505092915050565b5f82825260208201905092915050565b7f53544600000000000000000000000000000000000000000000000000000000005f82015250565b5f610b96600383610b52565b9150610ba182610b62565b602082019050919050565b5f6020820190508181035f830152610bc381610b8a565b9050919050565b5f604082019050610bdd5f8301856105d7565b610bea6020830184610a5e565b9392505050565b7f53410000000000000000000000000000000000000000000000000000000000005f82015250565b5f610c25600283610b52565b9150610c3082610bf1565b602082019050919050565b5f6020820190508181035f830152610c5281610c19565b905091905056fea2646970667358221220a3f8f15b19868f6981c81e4f046c5a6a0634239fe0440c7b3072641bf744c97364736f6c63430008140033",
  "immutableReferences": {},
  "source": "// SPDX-License-Identifier: MIT\npragma solidity ^0.8.6;\nimport \"./interfaces/IBet.sol\";\nimport \"./interfaces/ILP.sol\";\nimport \"@uniswap/v3-periphery/contracts/libraries/TransferHelper.sol\";\n\ncontract AzuroBet {\n    ILP public lp = ILP(0x204e7371Ade792c5C006fb52711c50a7efC843ed);\n    address public core = 0xC95C831c7bDb0650b8cD5F2a542b263872d8ed0e;\n    address public WXDAI = 0xe91D153E0b41518A2Ce8Dd3D7944Fa863463a97d;\n\n    function bet(\n        uint128 amount,\n        uint64 expiresAt,\n        IBet.BetData memory betData\n    ) public {\n        TransferHelper.safeTransferFrom(\n            WXDAI,\n            msg.sender,\n            address(this),\n            amount\n        );\n\n        TransferHelper.safeApprove(WXDAI, address(lp), amount);\n        lp.bet(core, amount, expiresAt, betData);\n    }\n}\n",
  "sourcePath": "/home/ridwan/bluelineDao/training-02/contracts/AzuroBet.sol",
  "compiler": {
    "name": "solc",
    "version": "0.8.20+commit.a1b79de6.Emscripten.clang"
  },
  "schemaVersion": "3.4.14",
  "updatedAt": "2023-05-29T11:49:53.970Z",
  "networkType": "ethereum",
  "devdoc": {
    "kind": "dev",
    "methods": {},
    "version": 1
  },
  "userdoc": {
    "kind": "user",
    "methods": {},
    "version": 1
  }
}