{
  "contractName": "Polymarket",
  "abi": [
    {
      "inputs": [
        {
          "internalType": "address",
          "name": "_polyToken",
          "type": "address"
        }
      ],
      "stateMutability": "nonpayable",
      "type": "constructor"
    },
    {
      "anonymous": false,
      "inputs": [
        {
          "indexed": false,
          "internalType": "uint256",
          "name": "id",
          "type": "uint256"
        },
        {
          "indexed": false,
          "internalType": "string",
          "name": "question",
          "type": "string"
        },
        {
          "indexed": false,
          "internalType": "uint256",
          "name": "timestamp",
          "type": "uint256"
        },
        {
          "indexed": false,
          "internalType": "address",
          "name": "createdBy",
          "type": "address"
        },
        {
          "indexed": false,
          "internalType": "string",
          "name": "creatorImageHash",
          "type": "string"
        },
        {
          "indexed": false,
          "internalType": "uint256",
          "name": "totalAmount",
          "type": "uint256"
        },
        {
          "indexed": false,
          "internalType": "uint256",
          "name": "totalYesAmount",
          "type": "uint256"
        },
        {
          "indexed": false,
          "internalType": "uint256",
          "name": "totalNoAmount",
          "type": "uint256"
        }
      ],
      "name": "QuestionCreated",
      "type": "event"
    },
    {
      "inputs": [],
      "name": "owner",
      "outputs": [
        {
          "internalType": "address",
          "name": "",
          "type": "address"
        }
      ],
      "stateMutability": "view",
      "type": "function",
      "constant": true
    },
    {
      "inputs": [],
      "name": "polyToken",
      "outputs": [
        {
          "internalType": "address",
          "name": "",
          "type": "address"
        }
      ],
      "stateMutability": "view",
      "type": "function",
      "constant": true
    },
    {
      "inputs": [
        {
          "internalType": "uint256",
          "name": "",
          "type": "uint256"
        }
      ],
      "name": "questions",
      "outputs": [
        {
          "internalType": "uint256",
          "name": "id",
          "type": "uint256"
        },
        {
          "internalType": "string",
          "name": "question",
          "type": "string"
        },
        {
          "internalType": "uint256",
          "name": "timestamp",
          "type": "uint256"
        },
        {
          "internalType": "uint256",
          "name": "endTimestamp",
          "type": "uint256"
        },
        {
          "internalType": "address",
          "name": "createdBy",
          "type": "address"
        },
        {
          "internalType": "string",
          "name": "creatorImageHash",
          "type": "string"
        },
        {
          "internalType": "uint256",
          "name": "totalAmount",
          "type": "uint256"
        },
        {
          "internalType": "uint256",
          "name": "totalYesAmount",
          "type": "uint256"
        },
        {
          "internalType": "uint256",
          "name": "totalNoAmount",
          "type": "uint256"
        },
        {
          "internalType": "bool",
          "name": "eventCompleted",
          "type": "bool"
        },
        {
          "internalType": "string",
          "name": "description",
          "type": "string"
        },
        {
          "internalType": "string",
          "name": "resolverUrl",
          "type": "string"
        }
      ],
      "stateMutability": "view",
      "type": "function",
      "constant": true
    },
    {
      "inputs": [],
      "name": "totalQuestions",
      "outputs": [
        {
          "internalType": "uint256",
          "name": "",
          "type": "uint256"
        }
      ],
      "stateMutability": "view",
      "type": "function",
      "constant": true
    },
    {
      "inputs": [
        {
          "internalType": "uint256",
          "name": "",
          "type": "uint256"
        }
      ],
      "name": "winningAddresses",
      "outputs": [
        {
          "internalType": "address",
          "name": "",
          "type": "address"
        }
      ],
      "stateMutability": "view",
      "type": "function",
      "constant": true
    },
    {
      "inputs": [
        {
          "internalType": "address",
          "name": "",
          "type": "address"
        }
      ],
      "name": "winningAmount",
      "outputs": [
        {
          "internalType": "uint256",
          "name": "",
          "type": "uint256"
        }
      ],
      "stateMutability": "view",
      "type": "function",
      "constant": true
    },
    {
      "inputs": [
        {
          "internalType": "string",
          "name": "_question",
          "type": "string"
        },
        {
          "internalType": "string",
          "name": "_creatorImageHash",
          "type": "string"
        },
        {
          "internalType": "string",
          "name": "_description",
          "type": "string"
        },
        {
          "internalType": "string",
          "name": "_resolverUrl",
          "type": "string"
        },
        {
          "internalType": "uint256",
          "name": "_endTimestamp",
          "type": "uint256"
        }
      ],
      "name": "createQuestion",
      "outputs": [],
      "stateMutability": "nonpayable",
      "type": "function"
    },
    {
      "inputs": [
        {
          "internalType": "uint256",
          "name": "_questionId",
          "type": "uint256"
        },
        {
          "internalType": "uint256",
          "name": "_value",
          "type": "uint256"
        }
      ],
      "name": "addYesBet",
      "outputs": [],
      "stateMutability": "payable",
      "type": "function",
      "payable": true
    },
    {
      "inputs": [
        {
          "internalType": "uint256",
          "name": "_questionId",
          "type": "uint256"
        },
        {
          "internalType": "uint256",
          "name": "_value",
          "type": "uint256"
        }
      ],
      "name": "addNoBet",
      "outputs": [],
      "stateMutability": "payable",
      "type": "function",
      "payable": true
    },
    {
      "inputs": [
        {
          "internalType": "uint256",
          "name": "_questionId",
          "type": "uint256"
        }
      ],
      "name": "getGraphData",
      "outputs": [
        {
          "components": [
            {
              "internalType": "address",
              "name": "user",
              "type": "address"
            },
            {
              "internalType": "uint256",
              "name": "amount",
              "type": "uint256"
            },
            {
              "internalType": "uint256",
              "name": "timestamp",
              "type": "uint256"
            }
          ],
          "internalType": "struct Polymarket.AmountAdded[]",
          "name": "",
          "type": "tuple[]"
        },
        {
          "components": [
            {
              "internalType": "address",
              "name": "user",
              "type": "address"
            },
            {
              "internalType": "uint256",
              "name": "amount",
              "type": "uint256"
            },
            {
              "internalType": "uint256",
              "name": "timestamp",
              "type": "uint256"
            }
          ],
          "internalType": "struct Polymarket.AmountAdded[]",
          "name": "",
          "type": "tuple[]"
        }
      ],
      "stateMutability": "view",
      "type": "function",
      "constant": true
    },
    {
      "inputs": [
        {
          "internalType": "uint256",
          "name": "_questionId",
          "type": "uint256"
        },
        {
          "internalType": "bool",
          "name": "eventOutcome",
          "type": "bool"
        }
      ],
      "name": "distributeWinningAmount",
      "outputs": [],
      "stateMutability": "payable",
      "type": "function",
      "payable": true
    },
    {
      "inputs": [],
      "name": "isAdmin",
      "outputs": [
        {
          "internalType": "bool",
          "name": "",
          "type": "bool"
        }
      ],
      "stateMutability": "view",
      "type": "function",
      "constant": true
    }
  ],
  "bytecode": "0x60806040525f60025534801562000014575f80fd5b506040516200248f3803806200248f83398181016040528101906200003a919062000125565b335f806101000a81548173ffffffffffffffffffffffffffffffffffffffff021916908373ffffffffffffffffffffffffffffffffffffffff1602179055508060015f6101000a81548173ffffffffffffffffffffffffffffffffffffffff021916908373ffffffffffffffffffffffffffffffffffffffff1602179055505062000155565b5f80fd5b5f73ffffffffffffffffffffffffffffffffffffffff82169050919050565b5f620000ef82620000c4565b9050919050565b6200010181620000e3565b81146200010c575f80fd5b50565b5f815190506200011f81620000f6565b92915050565b5f602082840312156200013d576200013c620000c0565b5b5f6200014c848285016200010f565b91505092915050565b61232c80620001635f395ff3fe6080604052600436106100a6575f3560e01c8063b6db75a011610063578063b6db75a0146101c6578063b78d6c1d146101f0578063bea5b9141461022c578063bf01fe0014610256578063da6b4db814610272578063eb3f75e2146102ae576100a6565b806314dd5762146100aa57806319a1cafe146100e757806331b1b9781461010f5780636faa22a514610156578063724ba40b146101805780638da5cb5b1461019c575b5f80fd5b3480156100b5575f80fd5b506100d060048036038101906100cb91906115b6565b6102ca565b6040516100de929190611717565b60405180910390f35b3480156100f2575f80fd5b5061010d60048036038101906101089190611888565b61046f565b005b34801561011a575f80fd5b50610135600480360381019061013091906115b6565b61063a565b60405161014d9c9b9a99989796959493929190611a21565b60405180910390f35b348015610161575f80fd5b5061016a6108d9565b6040516101779190611af5565b60405180910390f35b61019a60048036038101906101959190611b38565b6108fe565b005b3480156101a7575f80fd5b506101b061108c565b6040516101bd9190611af5565b60405180910390f35b3480156101d1575f80fd5b506101da6110af565b6040516101e79190611b76565b60405180910390f35b3480156101fb575f80fd5b50610216600480360381019061021191906115b6565b611113565b6040516102239190611af5565b60405180910390f35b348015610237575f80fd5b5061024061114e565b60405161024d9190611b8f565b60405180910390f35b610270600480360381019061026b9190611ba8565b611154565b005b34801561027d575f80fd5b5061029860048036038101906102939190611c10565b61133c565b6040516102a59190611b8f565b60405180910390f35b6102c860048036038101906102c39190611ba8565b611351565b005b6060805f60035f8581526020019081526020015f209050806006018160070181805480602002602001604051908101604052809291908181526020015f905b828210156103a1578382905f5260205f2090600302016040518060600160405290815f82015f9054906101000a900473ffffffffffffffffffffffffffffffffffffffff1673ffffffffffffffffffffffffffffffffffffffff1673ffffffffffffffffffffffffffffffffffffffff1681526020016001820154815260200160028201548152505081526020019060010190610309565b50505050915080805480602002602001604051908101604052809291908181526020015f905b8282101561045f578382905f5260205f2090600302016040518060600160405290815f82015f9054906101000a900473ffffffffffffffffffffffffffffffffffffffff1673ffffffffffffffffffffffffffffffffffffffff1673ffffffffffffffffffffffffffffffffffffffff16815260200160018201548152602001600282015481525050815260200190600101906103c7565b5050505090509250925050915091565b5f8054906101000a900473ffffffffffffffffffffffffffffffffffffffff1673ffffffffffffffffffffffffffffffffffffffff163373ffffffffffffffffffffffffffffffffffffffff16146104fc576040517f08c379a00000000000000000000000000000000000000000000000000000000081526004016104f390611c85565b60405180910390fd5b5f4290505f60035f60025481526020019081526020015f20905060025f81548092919061052890611cd0565b91905055815f0181905550868160010190816105449190611f11565b5081816002018190555033816004015f6101000a81548173ffffffffffffffffffffffffffffffffffffffff021916908373ffffffffffffffffffffffffffffffffffffffff160217905550858160050190816105a19190611f11565b505f81600801819055505f81600901819055505f81600a01819055508481600c0190816105ce9190611f11565b508381600d0190816105e09190611f11565b508281600301819055507fd8960286cb5486e9a27d200d805d06e2eeda2fe2bd67967e36b466ecd440ac996002548884338a5f805f604051610629989796959493929190612019565b60405180910390a150505050505050565b6003602052805f5260405f205f91509050805f01549080600101805461065f90611d44565b80601f016020809104026020016040519081016040528092919081815260200182805461068b90611d44565b80156106d65780601f106106ad576101008083540402835291602001916106d6565b820191905f5260205f20905b8154815290600101906020018083116106b957829003601f168201915b505050505090806002015490806003015490806004015f9054906101000a900473ffffffffffffffffffffffffffffffffffffffff169080600501805461071c90611d44565b80601f016020809104026020016040519081016040528092919081815260200182805461074890611d44565b80156107935780601f1061076a57610100808354040283529160200191610793565b820191905f5260205f20905b81548152906001019060200180831161077657829003601f168201915b50505050509080600801549080600901549080600a01549080600b015f9054906101000a900460ff169080600c0180546107cc90611d44565b80601f01602080910402602001604051908101604052809291908181526020018280546107f890611d44565b80156108435780601f1061081a57610100808354040283529160200191610843565b820191905f5260205f20905b81548152906001019060200180831161082657829003601f168201915b50505050509080600d01805461085890611d44565b80601f016020809104026020016040519081016040528092919081815260200182805461088490611d44565b80156108cf5780601f106108a6576101008083540402835291602001916108cf565b820191905f5260205f20905b8154815290600101906020018083116108b257829003601f168201915b505050505090508c565b60015f9054906101000a900473ffffffffffffffffffffffffffffffffffffffff1681565b5f8054906101000a900473ffffffffffffffffffffffffffffffffffffffff1673ffffffffffffffffffffffffffffffffffffffff163373ffffffffffffffffffffffffffffffffffffffff161461098b576040517f08c379a000000000000000000000000000000000000000000000000000000000815260040161098290611c85565b60405180910390fd5b5f60035f8481526020019081526020015f2090508115610d0a575f5b8160060180549050811015610b7a575f82600901548360060183815481106109d2576109d16120a3565b5b905f5260205f2090600302016001015484600a01546109f191906120d0565b6109fb919061213e565b9050826006018281548110610a1357610a126120a3565b5b905f5260205f2090600302016001015481610a2e919061216e565b60045f856006018581548110610a4757610a466120a3565b5b905f5260205f2090600302015f015f9054906101000a900473ffffffffffffffffffffffffffffffffffffffff1673ffffffffffffffffffffffffffffffffffffffff1673ffffffffffffffffffffffffffffffffffffffff1681526020019081526020015f205f828254610abc919061216e565b925050819055506005836006018381548110610adb57610ada6120a3565b5b905f5260205f2090600302015f015f9054906101000a900473ffffffffffffffffffffffffffffffffffffffff16908060018154018082558091505060019003905f5260205f20015f9091909190916101000a81548173ffffffffffffffffffffffffffffffffffffffff021916908373ffffffffffffffffffffffffffffffffffffffff160217905550508080610b7290611cd0565b9150506109a7565b505f5b600580549050811015610cf7575f60058281548110610b9f57610b9e6120a3565b5b905f5260205f20015f9054906101000a900473ffffffffffffffffffffffffffffffffffffffff16905060015f9054906101000a900473ffffffffffffffffffffffffffffffffffffffff1673ffffffffffffffffffffffffffffffffffffffff1663a9059cbb8260045f8573ffffffffffffffffffffffffffffffffffffffff1673ffffffffffffffffffffffffffffffffffffffff1681526020019081526020015f20546040518363ffffffff1660e01b8152600401610c629291906121f3565b6020604051808303815f875af1158015610c7e573d5f803e3d5ffd5b505050506040513d601f19601f82011682018060405250810190610ca2919061222e565b5060045f8273ffffffffffffffffffffffffffffffffffffffff1673ffffffffffffffffffffffffffffffffffffffff1681526020019081526020015f205f9055508080610cef90611cd0565b915050610b7d565b5060055f610d059190611539565b61106b565b5f5b8160070180549050811015610edf575f82600a0154836007018381548110610d3757610d366120a3565b5b905f5260205f209060030201600101548460090154610d5691906120d0565b610d60919061213e565b9050826007018281548110610d7857610d776120a3565b5b905f5260205f2090600302016001015481610d93919061216e565b60045f856007018581548110610dac57610dab6120a3565b5b905f5260205f2090600302015f015f9054906101000a900473ffffffffffffffffffffffffffffffffffffffff1673ffffffffffffffffffffffffffffffffffffffff1673ffffffffffffffffffffffffffffffffffffffff1681526020019081526020015f205f828254610e21919061216e565b925050819055506005836007018381548110610e4057610e3f6120a3565b5b905f5260205f2090600302015f015f9054906101000a900473ffffffffffffffffffffffffffffffffffffffff16908060018154018082558091505060019003905f5260205f20015f9091909190916101000a81548173ffffffffffffffffffffffffffffffffffffffff021916908373ffffffffffffffffffffffffffffffffffffffff160217905550508080610ed790611cd0565b915050610d0c565b505f5b60058054905081101561105c575f60058281548110610f0457610f036120a3565b5b905f5260205f20015f9054906101000a900473ffffffffffffffffffffffffffffffffffffffff16905060015f9054906101000a900473ffffffffffffffffffffffffffffffffffffffff1673ffffffffffffffffffffffffffffffffffffffff1663a9059cbb8260045f8573ffffffffffffffffffffffffffffffffffffffff1673ffffffffffffffffffffffffffffffffffffffff1681526020019081526020015f20546040518363ffffffff1660e01b8152600401610fc79291906121f3565b6020604051808303815f875af1158015610fe3573d5f803e3d5ffd5b505050506040513d601f19601f82011682018060405250810190611007919061222e565b5060045f8273ffffffffffffffffffffffffffffffffffffffff1673ffffffffffffffffffffffffffffffffffffffff1681526020019081526020015f205f905550808061105490611cd0565b915050610ee2565b5060055f61106a9190611539565b5b600181600b015f6101000a81548160ff021916908315150217905550505050565b5f8054906101000a900473ffffffffffffffffffffffffffffffffffffffff1681565b5f805f9054906101000a900473ffffffffffffffffffffffffffffffffffffffff1673ffffffffffffffffffffffffffffffffffffffff163373ffffffffffffffffffffffffffffffffffffffff160361110c5760019050611110565b5f90505b90565b60058181548110611122575f80fd5b905f5260205f20015f915054906101000a900473ffffffffffffffffffffffffffffffffffffffff1681565b60025481565b5f8214611196576040517f08c379a000000000000000000000000000000000000000000000000000000000815260040161118d906122a3565b60405180910390fd5b5f60035f8481526020019081526020015f20905060015f9054906101000a900473ffffffffffffffffffffffffffffffffffffffff1673ffffffffffffffffffffffffffffffffffffffff166323b872dd3330856040518463ffffffff1660e01b8152600401611208939291906122c1565b6020604051808303815f875af1158015611224573d5f803e3d5ffd5b505050506040513d601f19601f82011682018060405250810190611248919061222e565b505f60405180606001604052803373ffffffffffffffffffffffffffffffffffffffff1681526020018481526020014281525090508282600a015f828254611290919061216e565b9250508190555082826008015f8282546112aa919061216e565b925050819055508160070181908060018154018082558091505060019003905f5260205f2090600302015f909190919091505f820151815f015f6101000a81548173ffffffffffffffffffffffffffffffffffffffff021916908373ffffffffffffffffffffffffffffffffffffffff1602179055506020820151816001015560408201518160020155505050505050565b6004602052805f5260405f205f915090505481565b5f8214611393576040517f08c379a000000000000000000000000000000000000000000000000000000000815260040161138a906122a3565b60405180910390fd5b5f60035f8481526020019081526020015f20905060015f9054906101000a900473ffffffffffffffffffffffffffffffffffffffff1673ffffffffffffffffffffffffffffffffffffffff166323b872dd3330856040518463ffffffff1660e01b8152600401611405939291906122c1565b6020604051808303815f875af1158015611421573d5f803e3d5ffd5b505050506040513d601f19601f82011682018060405250810190611445919061222e565b505f60405180606001604052803373ffffffffffffffffffffffffffffffffffffffff16815260200184815260200142815250905082826009015f82825461148d919061216e565b9250508190555082826008015f8282546114a7919061216e565b925050819055508160060181908060018154018082558091505060019003905f5260205f2090600302015f909190919091505f820151815f015f6101000a81548173ffffffffffffffffffffffffffffffffffffffff021916908373ffffffffffffffffffffffffffffffffffffffff1602179055506020820151816001015560408201518160020155505050505050565b5080545f8255905f5260205f20908101906115549190611557565b50565b5b8082111561156e575f815f905550600101611558565b5090565b5f604051905090565b5f80fd5b5f80fd5b5f819050919050565b61159581611583565b811461159f575f80fd5b50565b5f813590506115b08161158c565b92915050565b5f602082840312156115cb576115ca61157b565b5b5f6115d8848285016115a2565b91505092915050565b5f81519050919050565b5f82825260208201905092915050565b5f819050602082019050919050565b5f73ffffffffffffffffffffffffffffffffffffffff82169050919050565b5f6116338261160a565b9050919050565b61164381611629565b82525050565b61165281611583565b82525050565b606082015f82015161166c5f85018261163a565b50602082015161167f6020850182611649565b5060408201516116926040850182611649565b50505050565b5f6116a38383611658565b60608301905092915050565b5f602082019050919050565b5f6116c5826115e1565b6116cf81856115eb565b93506116da836115fb565b805f5b8381101561170a5781516116f18882611698565b97506116fc836116af565b9250506001810190506116dd565b5085935050505092915050565b5f6040820190508181035f83015261172f81856116bb565b9050818103602083015261174381846116bb565b90509392505050565b5f80fd5b5f80fd5b5f601f19601f8301169050919050565b7f4e487b71000000000000000000000000000000000000000000000000000000005f52604160045260245ffd5b61179a82611754565b810181811067ffffffffffffffff821117156117b9576117b8611764565b5b80604052505050565b5f6117cb611572565b90506117d78282611791565b919050565b5f67ffffffffffffffff8211156117f6576117f5611764565b5b6117ff82611754565b9050602081019050919050565b828183375f83830152505050565b5f61182c611827846117dc565b6117c2565b90508281526020810184848401111561184857611847611750565b5b61185384828561180c565b509392505050565b5f82601f83011261186f5761186e61174c565b5b813561187f84826020860161181a565b91505092915050565b5f805f805f60a086880312156118a1576118a061157b565b5b5f86013567ffffffffffffffff8111156118be576118bd61157f565b5b6118ca8882890161185b565b955050602086013567ffffffffffffffff8111156118eb576118ea61157f565b5b6118f78882890161185b565b945050604086013567ffffffffffffffff8111156119185761191761157f565b5b6119248882890161185b565b935050606086013567ffffffffffffffff8111156119455761194461157f565b5b6119518882890161185b565b9250506080611962888289016115a2565b9150509295509295909350565b61197881611583565b82525050565b5f81519050919050565b5f82825260208201905092915050565b5f5b838110156119b557808201518184015260208101905061199a565b5f8484015250505050565b5f6119ca8261197e565b6119d48185611988565b93506119e4818560208601611998565b6119ed81611754565b840191505092915050565b611a0181611629565b82525050565b5f8115159050919050565b611a1b81611a07565b82525050565b5f61018082019050611a355f83018f61196f565b8181036020830152611a47818e6119c0565b9050611a56604083018d61196f565b611a63606083018c61196f565b611a70608083018b6119f8565b81810360a0830152611a82818a6119c0565b9050611a9160c083018961196f565b611a9e60e083018861196f565b611aac61010083018761196f565b611aba610120830186611a12565b818103610140830152611acd81856119c0565b9050818103610160830152611ae281846119c0565b90509d9c50505050505050505050505050565b5f602082019050611b085f8301846119f8565b92915050565b611b1781611a07565b8114611b21575f80fd5b50565b5f81359050611b3281611b0e565b92915050565b5f8060408385031215611b4e57611b4d61157b565b5b5f611b5b858286016115a2565b9250506020611b6c85828601611b24565b9150509250929050565b5f602082019050611b895f830184611a12565b92915050565b5f602082019050611ba25f83018461196f565b92915050565b5f8060408385031215611bbe57611bbd61157b565b5b5f611bcb858286016115a2565b9250506020611bdc858286016115a2565b9150509250929050565b611bef81611629565b8114611bf9575f80fd5b50565b5f81359050611c0a81611be6565b92915050565b5f60208284031215611c2557611c2461157b565b5b5f611c3284828501611bfc565b91505092915050565b7f556e617574686f72697a656400000000000000000000000000000000000000005f82015250565b5f611c6f600c83611988565b9150611c7a82611c3b565b602082019050919050565b5f6020820190508181035f830152611c9c81611c63565b9050919050565b7f4e487b71000000000000000000000000000000000000000000000000000000005f52601160045260245ffd5b5f611cda82611583565b91507fffffffffffffffffffffffffffffffffffffffffffffffffffffffffffffffff8203611d0c57611d0b611ca3565b5b600182019050919050565b7f4e487b71000000000000000000000000000000000000000000000000000000005f52602260045260245ffd5b5f6002820490506001821680611d5b57607f821691505b602082108103611d6e57611d6d611d17565b5b50919050565b5f819050815f5260205f209050919050565b5f6020601f8301049050919050565b5f82821b905092915050565b5f60088302611dd07fffffffffffffffffffffffffffffffffffffffffffffffffffffffffffffffff82611d95565b611dda8683611d95565b95508019841693508086168417925050509392505050565b5f819050919050565b5f611e15611e10611e0b84611583565b611df2565b611583565b9050919050565b5f819050919050565b611e2e83611dfb565b611e42611e3a82611e1c565b848454611da1565b825550505050565b5f90565b611e56611e4a565b611e61818484611e25565b505050565b5b81811015611e8457611e795f82611e4e565b600181019050611e67565b5050565b601f821115611ec957611e9a81611d74565b611ea384611d86565b81016020851015611eb2578190505b611ec6611ebe85611d86565b830182611e66565b50505b505050565b5f82821c905092915050565b5f611ee95f1984600802611ece565b1980831691505092915050565b5f611f018383611eda565b9150826002028217905092915050565b611f1a8261197e565b67ffffffffffffffff811115611f3357611f32611764565b5b611f3d8254611d44565b611f48828285611e88565b5f60209050601f831160018114611f79575f8415611f67578287015190505b611f718582611ef6565b865550611fd8565b601f198416611f8786611d74565b5f5b82811015611fae57848901518255600182019150602085019450602081019050611f89565b86831015611fcb5784890151611fc7601f891682611eda565b8355505b6001600288020188555050505b505050505050565b5f819050919050565b5f612003611ffe611ff984611fe0565b611df2565b611583565b9050919050565b61201381611fe9565b82525050565b5f6101008201905061202d5f83018b61196f565b818103602083015261203f818a6119c0565b905061204e604083018961196f565b61205b60608301886119f8565b818103608083015261206d81876119c0565b905061207c60a083018661200a565b61208960c083018561200a565b61209660e083018461200a565b9998505050505050505050565b7f4e487b71000000000000000000000000000000000000000000000000000000005f52603260045260245ffd5b5f6120da82611583565b91506120e583611583565b92508282026120f381611583565b9150828204841483151761210a57612109611ca3565b5b5092915050565b7f4e487b71000000000000000000000000000000000000000000000000000000005f52601260045260245ffd5b5f61214882611583565b915061215383611583565b92508261216357612162612111565b5b828204905092915050565b5f61217882611583565b915061218383611583565b925082820190508082111561219b5761219a611ca3565b5b92915050565b5f6121bb6121b66121b18461160a565b611df2565b61160a565b9050919050565b5f6121cc826121a1565b9050919050565b5f6121dd826121c2565b9050919050565b6121ed816121d3565b82525050565b5f6040820190506122065f8301856121e4565b612213602083018461196f565b9392505050565b5f8151905061222881611b0e565b92915050565b5f602082840312156122435761224261157b565b5b5f6122508482850161221a565b91505092915050565b7f5175657374696f6e2049442063616e6e6f74206265206e756c6c0000000000005f82015250565b5f61228d601a83611988565b915061229882612259565b602082019050919050565b5f6020820190508181035f8301526122ba81612281565b9050919050565b5f6060820190506122d45f8301866119f8565b6122e160208301856119f8565b6122ee604083018461196f565b94935050505056fea264697066735822122005dfe332a438ce23e0118c2fd35de69e50a2b59268deb9053ac9240770c94e5464736f6c63430008140033",
  "immutableReferences": {},
  "source": "// SPDX-License-Identifier: MIT\npragma solidity ^0.8.6;\nimport \"@openzeppelin/contracts/token/ERC20/ERC20.sol\";\n\ncontract Polymarket {\n    address public owner;\n    address public polyToken;\n\n    uint256 public totalQuestions = 0;\n\n    constructor(address _polyToken) {\n        owner = msg.sender;\n        polyToken = _polyToken;\n    }\n\n    mapping(uint256 => Questions) public questions;\n\n    struct Questions {\n        uint256 id;\n        string question;\n        uint256 timestamp;\n        uint256 endTimestamp;\n        address createdBy;\n        string creatorImageHash;\n        AmountAdded[] yesCount;\n        AmountAdded[] noCount;\n        uint256 totalAmount;\n        uint256 totalYesAmount;\n        uint256 totalNoAmount;\n        bool eventCompleted;\n        string description;\n        string resolverUrl;\n    }\n\n    struct AmountAdded {\n        address user;\n        uint256 amount;\n        uint256 timestamp;\n    }\n\n    mapping(address => uint256) public winningAmount;\n    address[] public winningAddresses;\n\n    event QuestionCreated(\n        uint256 id,\n        string question,\n        uint256 timestamp,\n        address createdBy,\n        string creatorImageHash,\n        uint256 totalAmount,\n        uint256 totalYesAmount,\n        uint256 totalNoAmount\n    );\n\n    function createQuestion(\n        string memory _question,\n        string memory _creatorImageHash,\n        string memory _description,\n        string memory _resolverUrl,\n        uint256 _endTimestamp\n    ) public {\n        require(msg.sender == owner, \"Unauthorized\");\n\n        uint256 timestamp = block.timestamp;\n\n        Questions storage question = questions[totalQuestions];\n\n        question.id = totalQuestions++;\n        question.question = _question;\n        question.timestamp = timestamp;\n        question.createdBy = msg.sender;\n        question.creatorImageHash = _creatorImageHash;\n        question.totalAmount = 0;\n        question.totalYesAmount = 0;\n        question.totalNoAmount = 0;\n        question.description = _description;\n        question.resolverUrl = _resolverUrl;\n        question.endTimestamp = _endTimestamp;\n\n        emit QuestionCreated(\n            totalQuestions,\n            _question,\n            timestamp,\n            msg.sender,\n            _creatorImageHash,\n            0,\n            0,\n            0\n        );\n    }\n\n    function addYesBet(uint256 _questionId, uint256 _value) public payable {\n        require(_questionId == 0, \"Question ID cannot be null\");\n        Questions storage question = questions[_questionId];\n        ERC20(polyToken).transferFrom(msg.sender, address(this), _value);\n        AmountAdded memory amountAdded = AmountAdded(\n            msg.sender,\n            _value,\n            block.timestamp\n        );\n\n        question.totalYesAmount += _value;\n        question.totalAmount += _value;\n        question.yesCount.push(amountAdded);\n    }\n\n    function addNoBet(uint256 _questionId, uint256 _value) public payable {\n        require(_questionId == 0, \"Question ID cannot be null\");\n        Questions storage question = questions[_questionId];\n        ERC20(polyToken).transferFrom(msg.sender, address(this), _value);\n        AmountAdded memory amountAdded = AmountAdded(\n            msg.sender,\n            _value,\n            block.timestamp\n        );\n\n        question.totalNoAmount += _value;\n        question.totalAmount += _value;\n        question.noCount.push(amountAdded);\n    }\n\n    function getGraphData(uint256 _questionId)\n        public\n        view\n        returns (AmountAdded[] memory, AmountAdded[] memory)\n    {\n        Questions storage question = questions[_questionId];\n        return (question.yesCount, question.noCount);\n    }\n\n    function distributeWinningAmount(uint256 _questionId, bool eventOutcome)\n        public\n        payable\n    {\n        require(msg.sender == owner, \"Unauthorized\");\n\n        Questions storage question = questions[_questionId];\n        if (eventOutcome) {\n            for (uint256 i = 0; i < question.yesCount.length; i++) {\n                uint256 amount = (question.totalNoAmount *\n                    question.yesCount[i].amount) / question.totalYesAmount;\n                winningAmount[question.yesCount[i].user] += (amount +\n                    question.yesCount[i].amount);\n                winningAddresses.push(question.yesCount[i].user);\n            }\n\n            for (uint256 i = 0; i < winningAddresses.length; i++) {\n                address payable _address = payable(winningAddresses[i]);\n                ERC20(polyToken).transfer(_address, winningAmount[_address]);\n                delete winningAmount[_address];\n            }\n            delete winningAddresses;\n        } else {\n            for (uint256 i = 0; i < question.noCount.length; i++) {\n                uint256 amount = (question.totalYesAmount *\n                    question.noCount[i].amount) / question.totalNoAmount;\n                winningAmount[question.noCount[i].user] += (amount +\n                    question.noCount[i].amount);\n                winningAddresses.push(question.noCount[i].user);\n            }\n\n            for (uint256 i = 0; i < winningAddresses.length; i++) {\n                address payable _address = payable(winningAddresses[i]);\n                ERC20(polyToken).transfer(_address, winningAmount[_address]);\n                delete winningAmount[_address];\n            }\n            delete winningAddresses;\n        }\n        question.eventCompleted = true;\n    }\n\n    function isAdmin() public view returns (bool) {\n        if (msg.sender == owner) return true;\n        else return false;\n    }\n}\n",
  "sourcePath": "/home/ridwan/bluelineDao/training-02/contracts/Polymarket.sol",
  "compiler": {
    "name": "solc",
    "version": "0.8.20+commit.a1b79de6.Emscripten.clang"
  },
  "schemaVersion": "3.4.14",
  "updatedAt": "2023-05-26T09:55:06.218Z",
  "networkType": "ethereum",
  "devdoc": {
    "kind": "dev",
    "methods": {},
    "version": 1
  },
  "userdoc": {
    "kind": "user",
    "methods": {},
    "version": 1
  }
}