{
  "contractName": "PolyToken",
  "abi": [
    {
      "inputs": [],
      "stateMutability": "nonpayable",
      "type": "constructor"
    },
    {
      "anonymous": false,
      "inputs": [
        {
          "indexed": true,
          "internalType": "address",
          "name": "owner",
          "type": "address"
        },
        {
          "indexed": true,
          "internalType": "address",
          "name": "spender",
          "type": "address"
        },
        {
          "indexed": false,
          "internalType": "uint256",
          "name": "value",
          "type": "uint256"
        }
      ],
      "name": "Approval",
      "type": "event"
    },
    {
      "anonymous": false,
      "inputs": [
        {
          "indexed": true,
          "internalType": "address",
          "name": "from",
          "type": "address"
        },
        {
          "indexed": true,
          "internalType": "address",
          "name": "to",
          "type": "address"
        },
        {
          "indexed": false,
          "internalType": "uint256",
          "name": "value",
          "type": "uint256"
        }
      ],
      "name": "Transfer",
      "type": "event"
    },
    {
      "inputs": [
        {
          "internalType": "address",
          "name": "owner",
          "type": "address"
        },
        {
          "internalType": "address",
          "name": "spender",
          "type": "address"
        }
      ],
      "name": "allowance",
      "outputs": [
        {
          "internalType": "uint256",
          "name": "",
          "type": "uint256"
        }
      ],
      "stateMutability": "view",
      "type": "function",
      "constant": true
    },
    {
      "inputs": [
        {
          "internalType": "address",
          "name": "spender",
          "type": "address"
        },
        {
          "internalType": "uint256",
          "name": "amount",
          "type": "uint256"
        }
      ],
      "name": "approve",
      "outputs": [
        {
          "internalType": "bool",
          "name": "",
          "type": "bool"
        }
      ],
      "stateMutability": "nonpayable",
      "type": "function"
    },
    {
      "inputs": [
        {
          "internalType": "address",
          "name": "account",
          "type": "address"
        }
      ],
      "name": "balanceOf",
      "outputs": [
        {
          "internalType": "uint256",
          "name": "",
          "type": "uint256"
        }
      ],
      "stateMutability": "view",
      "type": "function",
      "constant": true
    },
    {
      "inputs": [],
      "name": "decimals",
      "outputs": [
        {
          "internalType": "uint8",
          "name": "",
          "type": "uint8"
        }
      ],
      "stateMutability": "view",
      "type": "function",
      "constant": true
    },
    {
      "inputs": [
        {
          "internalType": "address",
          "name": "spender",
          "type": "address"
        },
        {
          "internalType": "uint256",
          "name": "subtractedValue",
          "type": "uint256"
        }
      ],
      "name": "decreaseAllowance",
      "outputs": [
        {
          "internalType": "bool",
          "name": "",
          "type": "bool"
        }
      ],
      "stateMutability": "nonpayable",
      "type": "function"
    },
    {
      "inputs": [
        {
          "internalType": "address",
          "name": "spender",
          "type": "address"
        },
        {
          "internalType": "uint256",
          "name": "addedValue",
          "type": "uint256"
        }
      ],
      "name": "increaseAllowance",
      "outputs": [
        {
          "internalType": "bool",
          "name": "",
          "type": "bool"
        }
      ],
      "stateMutability": "nonpayable",
      "type": "function"
    },
    {
      "inputs": [],
      "name": "name",
      "outputs": [
        {
          "internalType": "string",
          "name": "",
          "type": "string"
        }
      ],
      "stateMutability": "view",
      "type": "function",
      "constant": true
    },
    {
      "inputs": [],
      "name": "owner",
      "outputs": [
        {
          "internalType": "address",
          "name": "",
          "type": "address"
        }
      ],
      "stateMutability": "view",
      "type": "function",
      "constant": true
    },
    {
      "inputs": [],
      "name": "symbol",
      "outputs": [
        {
          "internalType": "string",
          "name": "",
          "type": "string"
        }
      ],
      "stateMutability": "view",
      "type": "function",
      "constant": true
    },
    {
      "inputs": [],
      "name": "totalSupply",
      "outputs": [
        {
          "internalType": "uint256",
          "name": "",
          "type": "uint256"
        }
      ],
      "stateMutability": "view",
      "type": "function",
      "constant": true
    },
    {
      "inputs": [
        {
          "internalType": "address",
          "name": "recipient",
          "type": "address"
        },
        {
          "internalType": "uint256",
          "name": "amount",
          "type": "uint256"
        }
      ],
      "name": "transfer",
      "outputs": [
        {
          "internalType": "bool",
          "name": "",
          "type": "bool"
        }
      ],
      "stateMutability": "nonpayable",
      "type": "function"
    },
    {
      "inputs": [
        {
          "internalType": "address",
          "name": "sender",
          "type": "address"
        },
        {
          "internalType": "address",
          "name": "recipient",
          "type": "address"
        },
        {
          "internalType": "uint256",
          "name": "amount",
          "type": "uint256"
        }
      ],
      "name": "transferFrom",
      "outputs": [
        {
          "internalType": "bool",
          "name": "",
          "type": "bool"
        }
      ],
      "stateMutability": "nonpayable",
      "type": "function"
    },
    {
      "inputs": [
        {
          "internalType": "address",
          "name": "to",
          "type": "address"
        },
        {
          "internalType": "uint256",
          "name": "amount",
          "type": "uint256"
        }
      ],
      "name": "mint",
      "outputs": [],
      "stateMutability": "nonpayable",
      "type": "function"
    }
  ],
  "bytecode": "0x608060405234801562000010575f80fd5b506040518060400160405280600a81526020017f506f6c7920546f6b656e000000000000000000000000000000000000000000008152506040518060400160405280600481526020017f504f4c590000000000000000000000000000000000000000000000000000000081525081600390816200008e9190620004e3565b508060049081620000a09190620004e3565b5050503360055f6101000a81548173ffffffffffffffffffffffffffffffffffffffff021916908373ffffffffffffffffffffffffffffffffffffffff160217905550620000ff3369152d02c7e14af68000006200010560201b60201c565b620006d8565b5f73ffffffffffffffffffffffffffffffffffffffff168273ffffffffffffffffffffffffffffffffffffffff160362000176576040517f08c379a00000000000000000000000000000000000000000000000000000000081526004016200016d9062000625565b60405180910390fd5b620001895f83836200027560201b60201c565b8060025f8282546200019c919062000672565b92505081905550805f808473ffffffffffffffffffffffffffffffffffffffff1673ffffffffffffffffffffffffffffffffffffffff1681526020019081526020015f205f828254620001f0919062000672565b925050819055508173ffffffffffffffffffffffffffffffffffffffff165f73ffffffffffffffffffffffffffffffffffffffff167fddf252ad1be2c89b69c2b068fc378daa952ba7f163c4a11628f55a4df523b3ef83604051620002569190620006bd565b60405180910390a3620002715f83836200027a60201b60201c565b5050565b505050565b505050565b5f81519050919050565b7f4e487b71000000000000000000000000000000000000000000000000000000005f52604160045260245ffd5b7f4e487b71000000000000000000000000000000000000000000000000000000005f52602260045260245ffd5b5f6002820490506001821680620002fb57607f821691505b602082108103620003115762000310620002b6565b5b50919050565b5f819050815f5260205f209050919050565b5f6020601f8301049050919050565b5f82821b905092915050565b5f60088302620003757fffffffffffffffffffffffffffffffffffffffffffffffffffffffffffffffff8262000338565b62000381868362000338565b95508019841693508086168417925050509392505050565b5f819050919050565b5f819050919050565b5f620003cb620003c5620003bf8462000399565b620003a2565b62000399565b9050919050565b5f819050919050565b620003e683620003ab565b620003fe620003f582620003d2565b84845462000344565b825550505050565b5f90565b6200041462000406565b62000421818484620003db565b505050565b5b8181101562000448576200043c5f826200040a565b60018101905062000427565b5050565b601f8211156200049757620004618162000317565b6200046c8462000329565b810160208510156200047c578190505b620004946200048b8562000329565b83018262000426565b50505b505050565b5f82821c905092915050565b5f620004b95f19846008026200049c565b1980831691505092915050565b5f620004d38383620004a8565b9150826002028217905092915050565b620004ee826200027f565b67ffffffffffffffff8111156200050a576200050962000289565b5b620005168254620002e3565b620005238282856200044c565b5f60209050601f83116001811462000559575f841562000544578287015190505b620005508582620004c6565b865550620005bf565b601f198416620005698662000317565b5f5b8281101562000592578489015182556001820191506020850194506020810190506200056b565b86831015620005b25784890151620005ae601f891682620004a8565b8355505b6001600288020188555050505b505050505050565b5f82825260208201905092915050565b7f45524332303a206d696e7420746f20746865207a65726f2061646472657373005f82015250565b5f6200060d601f83620005c7565b91506200061a82620005d7565b602082019050919050565b5f6020820190508181035f8301526200063e81620005ff565b9050919050565b7f4e487b71000000000000000000000000000000000000000000000000000000005f52601160045260245ffd5b5f6200067e8262000399565b91506200068b8362000399565b9250828201905080821115620006a657620006a562000645565b5b92915050565b620006b78162000399565b82525050565b5f602082019050620006d25f830184620006ac565b92915050565b61167480620006e65f395ff3fe608060405234801561000f575f80fd5b50600436106100cd575f3560e01c806340c10f191161008a57806395d89b411161006457806395d89b4114610225578063a457c2d714610243578063a9059cbb14610273578063dd62ed3e146102a3576100cd565b806340c10f19146101bb57806370a08231146101d75780638da5cb5b14610207576100cd565b806306fdde03146100d1578063095ea7b3146100ef57806318160ddd1461011f57806323b872dd1461013d578063313ce5671461016d578063395093511461018b575b5f80fd5b6100d96102d3565b6040516100e69190610e70565b60405180910390f35b61010960048036038101906101049190610f21565b610363565b6040516101169190610f79565b60405180910390f35b610127610380565b6040516101349190610fa1565b60405180910390f35b61015760048036038101906101529190610fba565b610389565b6040516101649190610f79565b60405180910390f35b61017561047b565b6040516101829190611025565b60405180910390f35b6101a560048036038101906101a09190610f21565b610483565b6040516101b29190610f79565b60405180910390f35b6101d560048036038101906101d09190610f21565b61052a565b005b6101f160048036038101906101ec919061103e565b6105c7565b6040516101fe9190610fa1565b60405180910390f35b61020f61060c565b60405161021c9190611078565b60405180910390f35b61022d610631565b60405161023a9190610e70565b60405180910390f35b61025d60048036038101906102589190610f21565b6106c1565b60405161026a9190610f79565b60405180910390f35b61028d60048036038101906102889190610f21565b6107a7565b60405161029a9190610f79565b60405180910390f35b6102bd60048036038101906102b89190611091565b6107c4565b6040516102ca9190610fa1565b60405180910390f35b6060600380546102e2906110fc565b80601f016020809104026020016040519081016040528092919081815260200182805461030e906110fc565b80156103595780601f1061033057610100808354040283529160200191610359565b820191905f5260205f20905b81548152906001019060200180831161033c57829003601f168201915b5050505050905090565b5f61037661036f610846565b848461084d565b6001905092915050565b5f600254905090565b5f610395848484610a10565b5f60015f8673ffffffffffffffffffffffffffffffffffffffff1673ffffffffffffffffffffffffffffffffffffffff1681526020019081526020015f205f6103dc610846565b73ffffffffffffffffffffffffffffffffffffffff1673ffffffffffffffffffffffffffffffffffffffff1681526020019081526020015f205490508281101561045b576040517f08c379a00000000000000000000000000000000000000000000000000000000081526004016104529061119c565b60405180910390fd5b61046f85610467610846565b85840361084d565b60019150509392505050565b5f6012905090565b5f61052061048f610846565b848460015f61049c610846565b73ffffffffffffffffffffffffffffffffffffffff1673ffffffffffffffffffffffffffffffffffffffff1681526020019081526020015f205f8873ffffffffffffffffffffffffffffffffffffffff1673ffffffffffffffffffffffffffffffffffffffff1681526020019081526020015f205461051b91906111e7565b61084d565b6001905092915050565b60055f9054906101000a900473ffffffffffffffffffffffffffffffffffffffff1673ffffffffffffffffffffffffffffffffffffffff163373ffffffffffffffffffffffffffffffffffffffff16146105b9576040517f08c379a00000000000000000000000000000000000000000000000000000000081526004016105b090611264565b60405180910390fd5b6105c38282610c85565b5050565b5f805f8373ffffffffffffffffffffffffffffffffffffffff1673ffffffffffffffffffffffffffffffffffffffff1681526020019081526020015f20549050919050565b60055f9054906101000a900473ffffffffffffffffffffffffffffffffffffffff1681565b606060048054610640906110fc565b80601f016020809104026020016040519081016040528092919081815260200182805461066c906110fc565b80156106b75780601f1061068e576101008083540402835291602001916106b7565b820191905f5260205f20905b81548152906001019060200180831161069a57829003601f168201915b5050505050905090565b5f8060015f6106ce610846565b73ffffffffffffffffffffffffffffffffffffffff1673ffffffffffffffffffffffffffffffffffffffff1681526020019081526020015f205f8573ffffffffffffffffffffffffffffffffffffffff1673ffffffffffffffffffffffffffffffffffffffff1681526020019081526020015f2054905082811015610788576040517f08c379a000000000000000000000000000000000000000000000000000000000815260040161077f906112f2565b60405180910390fd5b61079c610793610846565b8585840361084d565b600191505092915050565b5f6107ba6107b3610846565b8484610a10565b6001905092915050565b5f60015f8473ffffffffffffffffffffffffffffffffffffffff1673ffffffffffffffffffffffffffffffffffffffff1681526020019081526020015f205f8373ffffffffffffffffffffffffffffffffffffffff1673ffffffffffffffffffffffffffffffffffffffff1681526020019081526020015f2054905092915050565b5f33905090565b5f73ffffffffffffffffffffffffffffffffffffffff168373ffffffffffffffffffffffffffffffffffffffff16036108bb576040517f08c379a00000000000000000000000000000000000000000000000000000000081526004016108b290611380565b60405180910390fd5b5f73ffffffffffffffffffffffffffffffffffffffff168273ffffffffffffffffffffffffffffffffffffffff1603610929576040517f08c379a00000000000000000000000000000000000000000000000000000000081526004016109209061140e565b60405180910390fd5b8060015f8573ffffffffffffffffffffffffffffffffffffffff1673ffffffffffffffffffffffffffffffffffffffff1681526020019081526020015f205f8473ffffffffffffffffffffffffffffffffffffffff1673ffffffffffffffffffffffffffffffffffffffff1681526020019081526020015f20819055508173ffffffffffffffffffffffffffffffffffffffff168373ffffffffffffffffffffffffffffffffffffffff167f8c5be1e5ebec7d5bd14f71427d1e84f3dd0314c0f7b2291e5b200ac8c7c3b92583604051610a039190610fa1565b60405180910390a3505050565b5f73ffffffffffffffffffffffffffffffffffffffff168373ffffffffffffffffffffffffffffffffffffffff1603610a7e576040517f08c379a0000000000000000000000000000000000000000000000000000000008152600401610a759061149c565b60405180910390fd5b5f73ffffffffffffffffffffffffffffffffffffffff168273ffffffffffffffffffffffffffffffffffffffff1603610aec576040517f08c379a0000000000000000000000000000000000000000000000000000000008152600401610ae39061152a565b60405180910390fd5b610af7838383610ddc565b5f805f8573ffffffffffffffffffffffffffffffffffffffff1673ffffffffffffffffffffffffffffffffffffffff1681526020019081526020015f2054905081811015610b7a576040517f08c379a0000000000000000000000000000000000000000000000000000000008152600401610b71906115b8565b60405180910390fd5b8181035f808673ffffffffffffffffffffffffffffffffffffffff1673ffffffffffffffffffffffffffffffffffffffff1681526020019081526020015f2081905550815f808573ffffffffffffffffffffffffffffffffffffffff1673ffffffffffffffffffffffffffffffffffffffff1681526020019081526020015f205f828254610c0891906111e7565b925050819055508273ffffffffffffffffffffffffffffffffffffffff168473ffffffffffffffffffffffffffffffffffffffff167fddf252ad1be2c89b69c2b068fc378daa952ba7f163c4a11628f55a4df523b3ef84604051610c6c9190610fa1565b60405180910390a3610c7f848484610de1565b50505050565b5f73ffffffffffffffffffffffffffffffffffffffff168273ffffffffffffffffffffffffffffffffffffffff1603610cf3576040517f08c379a0000000000000000000000000000000000000000000000000000000008152600401610cea90611620565b60405180910390fd5b610cfe5f8383610ddc565b8060025f828254610d0f91906111e7565b92505081905550805f808473ffffffffffffffffffffffffffffffffffffffff1673ffffffffffffffffffffffffffffffffffffffff1681526020019081526020015f205f828254610d6191906111e7565b925050819055508173ffffffffffffffffffffffffffffffffffffffff165f73ffffffffffffffffffffffffffffffffffffffff167fddf252ad1be2c89b69c2b068fc378daa952ba7f163c4a11628f55a4df523b3ef83604051610dc59190610fa1565b60405180910390a3610dd85f8383610de1565b5050565b505050565b505050565b5f81519050919050565b5f82825260208201905092915050565b5f5b83811015610e1d578082015181840152602081019050610e02565b5f8484015250505050565b5f601f19601f8301169050919050565b5f610e4282610de6565b610e4c8185610df0565b9350610e5c818560208601610e00565b610e6581610e28565b840191505092915050565b5f6020820190508181035f830152610e888184610e38565b905092915050565b5f80fd5b5f73ffffffffffffffffffffffffffffffffffffffff82169050919050565b5f610ebd82610e94565b9050919050565b610ecd81610eb3565b8114610ed7575f80fd5b50565b5f81359050610ee881610ec4565b92915050565b5f819050919050565b610f0081610eee565b8114610f0a575f80fd5b50565b5f81359050610f1b81610ef7565b92915050565b5f8060408385031215610f3757610f36610e90565b5b5f610f4485828601610eda565b9250506020610f5585828601610f0d565b9150509250929050565b5f8115159050919050565b610f7381610f5f565b82525050565b5f602082019050610f8c5f830184610f6a565b92915050565b610f9b81610eee565b82525050565b5f602082019050610fb45f830184610f92565b92915050565b5f805f60608486031215610fd157610fd0610e90565b5b5f610fde86828701610eda565b9350506020610fef86828701610eda565b925050604061100086828701610f0d565b9150509250925092565b5f60ff82169050919050565b61101f8161100a565b82525050565b5f6020820190506110385f830184611016565b92915050565b5f6020828403121561105357611052610e90565b5b5f61106084828501610eda565b91505092915050565b61107281610eb3565b82525050565b5f60208201905061108b5f830184611069565b92915050565b5f80604083850312156110a7576110a6610e90565b5b5f6110b485828601610eda565b92505060206110c585828601610eda565b9150509250929050565b7f4e487b71000000000000000000000000000000000000000000000000000000005f52602260045260245ffd5b5f600282049050600182168061111357607f821691505b602082108103611126576111256110cf565b5b50919050565b7f45524332303a207472616e7366657220616d6f756e74206578636565647320615f8201527f6c6c6f77616e6365000000000000000000000000000000000000000000000000602082015250565b5f611186602883610df0565b91506111918261112c565b604082019050919050565b5f6020820190508181035f8301526111b38161117a565b9050919050565b7f4e487b71000000000000000000000000000000000000000000000000000000005f52601160045260245ffd5b5f6111f182610eee565b91506111fc83610eee565b9250828201905080821115611214576112136111ba565b5b92915050565b7f4f6e6c79206f776e65722063616e206d696e74000000000000000000000000005f82015250565b5f61124e601383610df0565b91506112598261121a565b602082019050919050565b5f6020820190508181035f83015261127b81611242565b9050919050565b7f45524332303a2064656372656173656420616c6c6f77616e63652062656c6f775f8201527f207a65726f000000000000000000000000000000000000000000000000000000602082015250565b5f6112dc602583610df0565b91506112e782611282565b604082019050919050565b5f6020820190508181035f830152611309816112d0565b9050919050565b7f45524332303a20617070726f76652066726f6d20746865207a65726f206164645f8201527f7265737300000000000000000000000000000000000000000000000000000000602082015250565b5f61136a602483610df0565b915061137582611310565b604082019050919050565b5f6020820190508181035f8301526113978161135e565b9050919050565b7f45524332303a20617070726f766520746f20746865207a65726f2061646472655f8201527f7373000000000000000000000000000000000000000000000000000000000000602082015250565b5f6113f8602283610df0565b91506114038261139e565b604082019050919050565b5f6020820190508181035f830152611425816113ec565b9050919050565b7f45524332303a207472616e736665722066726f6d20746865207a65726f2061645f8201527f6472657373000000000000000000000000000000000000000000000000000000602082015250565b5f611486602583610df0565b91506114918261142c565b604082019050919050565b5f6020820190508181035f8301526114b38161147a565b9050919050565b7f45524332303a207472616e7366657220746f20746865207a65726f20616464725f8201527f6573730000000000000000000000000000000000000000000000000000000000602082015250565b5f611514602383610df0565b915061151f826114ba565b604082019050919050565b5f6020820190508181035f83015261154181611508565b9050919050565b7f45524332303a207472616e7366657220616d6f756e74206578636565647320625f8201527f616c616e63650000000000000000000000000000000000000000000000000000602082015250565b5f6115a2602683610df0565b91506115ad82611548565b604082019050919050565b5f6020820190508181035f8301526115cf81611596565b9050919050565b7f45524332303a206d696e7420746f20746865207a65726f2061646472657373005f82015250565b5f61160a601f83610df0565b9150611615826115d6565b602082019050919050565b5f6020820190508181035f830152611637816115fe565b905091905056fea2646970667358221220dc9e79d48593e3d54a9af1617e7f52155aa238d1db5ef97dd4fe23fb179d2c9564736f6c63430008140033",
  "immutableReferences": {},
  "source": "// SPDX-License-Identifier: GPL-3.0\npragma solidity ^0.8.6;\nimport \"@openzeppelin/contracts/token/ERC20/ERC20.sol\";\n\ncontract PolyToken is ERC20 {\n    address public owner;\n\n    constructor() ERC20(\"Poly Token\", \"POLY\") {\n        owner = msg.sender;\n        _mint(msg.sender, 100000 * 10**18);\n    }\n\n    function mint(address to, uint256 amount) external {\n        require(msg.sender == owner, \"Only owner can mint\");\n        _mint(to, amount);\n    }\n}\n",
  "sourcePath": "/home/ridwan/bluelineDao/training-02/contracts/PolyToken.sol",
  "compiler": {
    "name": "solc",
    "version": "0.8.20+commit.a1b79de6.Emscripten.clang"
  },
  "schemaVersion": "3.4.14",
  "updatedAt": "2023-05-26T09:55:05.249Z",
  "networkType": "ethereum",
  "devdoc": {
    "events": {
      "Approval(address,address,uint256)": {
        "details": "Emitted when the allowance of a `spender` for an `owner` is set by a call to {approve}. `value` is the new allowance."
      },
      "Transfer(address,address,uint256)": {
        "details": "Emitted when `value` tokens are moved from one account (`from`) to another (`to`). Note that `value` may be zero."
      }
    },
    "kind": "dev",
    "methods": {
      "allowance(address,address)": {
        "details": "See {IERC20-allowance}."
      },
      "approve(address,uint256)": {
        "details": "See {IERC20-approve}. Requirements: - `spender` cannot be the zero address."
      },
      "balanceOf(address)": {
        "details": "See {IERC20-balanceOf}."
      },
      "decimals()": {
        "details": "Returns the number of decimals used to get its user representation. For example, if `decimals` equals `2`, a balance of `505` tokens should be displayed to a user as `5.05` (`505 / 10 ** 2`). Tokens usually opt for a value of 18, imitating the relationship between Ether and Wei. This is the value {ERC20} uses, unless this function is overridden; NOTE: This information is only used for _display_ purposes: it in no way affects any of the arithmetic of the contract, including {IERC20-balanceOf} and {IERC20-transfer}."
      },
      "decreaseAllowance(address,uint256)": {
        "details": "Atomically decreases the allowance granted to `spender` by the caller. This is an alternative to {approve} that can be used as a mitigation for problems described in {IERC20-approve}. Emits an {Approval} event indicating the updated allowance. Requirements: - `spender` cannot be the zero address. - `spender` must have allowance for the caller of at least `subtractedValue`."
      },
      "increaseAllowance(address,uint256)": {
        "details": "Atomically increases the allowance granted to `spender` by the caller. This is an alternative to {approve} that can be used as a mitigation for problems described in {IERC20-approve}. Emits an {Approval} event indicating the updated allowance. Requirements: - `spender` cannot be the zero address."
      },
      "name()": {
        "details": "Returns the name of the token."
      },
      "symbol()": {
        "details": "Returns the symbol of the token, usually a shorter version of the name."
      },
      "totalSupply()": {
        "details": "See {IERC20-totalSupply}."
      },
      "transfer(address,uint256)": {
        "details": "See {IERC20-transfer}. Requirements: - `recipient` cannot be the zero address. - the caller must have a balance of at least `amount`."
      },
      "transferFrom(address,address,uint256)": {
        "details": "See {IERC20-transferFrom}. Emits an {Approval} event indicating the updated allowance. This is not required by the EIP. See the note at the beginning of {ERC20}. Requirements: - `sender` and `recipient` cannot be the zero address. - `sender` must have a balance of at least `amount`. - the caller must have allowance for ``sender``'s tokens of at least `amount`."
      }
    },
    "version": 1
  },
  "userdoc": {
    "kind": "user",
    "methods": {},
    "version": 1
  }
}